:020000020000FC
:1000000070CCD1C1000000001FC0000093C00000F0
:1000100000009DC000000000000000000203040674
:10002000080C10182030406080000406080C1018DE
:100030002030406080A0C00000070F1F3F00050572
:100040000D050305030302004FB662FD0EC05520E7
:1000500009F00994C52DC095089483FDC795C4BDCA
:10006000C093A10064604FBE1895C09164000894CD
:1000700083FDC795C4BDC093A1006B7FC091640090
:10008000CF3F09F420C070FF02C082FD05C04FBE03
:100090009598AC98C098189575FD0EC065FD0CC07C
:1000A000C091B300C0FD9498C1FDAD98C2FDAB985E
:1000B000CAEFC095CA95F1F79598AC98C098209270
:1000C000A1004FBE189524BCCC27C064C8BF646093
:1000D000F6CFC0CF70FFBECF65FDBCCF959ABACF2B
:1000E00070FFB8CF65FDB6CFAC9AB4CF70FFB2CF7A
:1000F00065FDB0CFC09AAECF949A70FFABCF65FDCF
:10010000A9CFC7E0CA95F1F7959AA4CFAD9A70FF31
:10011000A1CF65FD9FCFC7E0CA95F1F7AC9A9ACF02
:10012000AB9A70FF97CF65FD95CFC7E0CA95F1F701
:10013000C09A90CF4FB6C9B7CF7EC9BF6E7FCCB53E
:10014000CE0DDDB5DF1DDBBDCABD4FBE18953FB678
:100150008F7EABB7A074A2118061A0E0ABBFA9B73E
:10016000AE7FA9BF4091DF004A954093DF00D9F4EC
:100170005091E000552321F05A955093E00013C0B0
:100180004091DD00442329F050EA4FE0A42E40E0E6
:1001900004C058EE43E0A42E41E04093DD005093AC
:1001A000DF00A092E0007894A0916800AA2341F0BB
:1001B00085FD35C0A0916800AA95A09368002FC066
:1001C00040E050E085FD14C0A0B396FDA095A2FDCF
:1001D00046ECA3E096FDA2E0A5BFAA27A064AABFB3
:1001E0008D7FA0B396FDA095A2FD56EC451741F773
:1001F000A8E161FDA093680085FD03C0A8E1A0937C
:10020000680040939700CCD7403009F450E0463C5A
:1002100009F453E65093DC0040919700816085FD1E
:100220000EC0A0916900AA2331F0A0916900AA959F
:10023000A093690004C08061AA27A064AABF80FFC0
:1002400038C0A09197004A2F61FF8E7F85FD18C0AE
:10025000403F08F040EFA42FA295AF704A0F509195
:10026000B800533069F0A695A69550FD01C0A6953B
:1002700052FD03C0A41B4A2F03C04A0F08F44FEFDE
:10028000A091A0004A1708F44A2F40936100A72FBD
:10029000A67079F0A0916D00A695A69556E0A50FE1
:1002A00050916100A50FA093610018F4AFEFA093E7
:1002B0006100A0916100A093630040916300A09150
:1002C0009C004A1708F04A2F542EA091A200AA239E
:1002D00009F422C0542F5A1B10F4A42F50E0BA2E58
:1002E0008894AA1FAA2EA091A400A095AA22A50EC8
:1002F00058F0A091A300A21509F0AA95AA0EA09308
:10030000A30048F04A2D08C0A091A300BA1608F037
:10031000A395A093A3004FEF409364007F7D485FB7
:1003200008F07062A52DA03408F06860A09160000C
:10033000A395A093600051F0F894A9B7A160A9BF5C
:1003400084FF02C0A0E4ABBF3FBE1895A09174002B
:10035000A395A093740041E050916800552329F0C3
:1003600085FF03C05A9550936800A0919700A13073
:1003700018F020929A000DC020929B002092A500B8
:10038000A0919A00AF5FA0939A0018F0AFEFA093EE
:100390009A00F894A9B7A160A9BF84FF02C0A0E4A5
:1003A000ABBF3FBE18953FB64CB55DB58F7EABB7C2
:1003B000A074A2118061A0E0ABBFA9B7AE7FA9BFB6
:1003C000789481FD24C0A2E096FDA3E0A5BF8260E1
:1003D000A0B396FDA095A2FF05C040936500509381
:1003E00066003EC0A3E096FDA2E0A5BFAA27A064D8
:1003F000AABF8D7F85FF01C030C040E0A0B396FD4D
:10040000A095A2FD2AC040939700CAD622C0A3E0BF
:1004100096FDA2E0A5BF8D7FA1E0A093960000C04D
:10042000A09165004A1BA09166005A0B552309F064
:1004300046ECA42EA42FA6954A0F521D4695409334
:10044000DC004A2D4650440F4395463C520508F0C7
:1004500046EC40939700A4D68160A8E1A093680081
:10046000A6E0A0936900F894A9B7A160A9BF84FF92
:1004700002C0A0E4ABBF3FBE189511E00AC013E074
:1004800008C01AE006C01EE104C014E602C018EC61
:1004900000C005E1BB27BA95F1F70A95D9F71A957F
:1004A000C1F708952AE338E709C020E33CE806C015
:1004B0002AE234EB03C025E238EC00C012E095FDDF
:1004C0009F7D95FF9062BB27AD9ABA95F1F7AC9AE4
:1004D000BA95F1F7AC98BA95F1F7AD98BA95F1F7EE
:1004E000959AB091AF00BA95F1F79598B7E8BA959B
:1004F000F1F71A9521F7022FB22FBA95F1F70A9565
:10050000D9F73A95D9F6AD9A0895221B39E0001F24
:100510003A9509F40895221F211B18F4210F88949D
:10052000F6CF0894F4CF622C722CB0E08894B39587
:10053000221F331FE0F7379527958894912E802E40
:10054000020B130B10F4192D082D10F4889401C020
:100550000894661C771CBA9571F7172D062D08951F
:10056000322D11232AF43A9500951095031B130B95
:10057000F894029F712C002D129F912C802C78945E
:10058000780C172D921C292DB4E06B2E269517950B
:1005900007956A94D9F7332321F000951095031B32
:1005A000130B0895089510917B00169500917A0021
:1005B0000795B0917F00B01B0B2FB0918000B10B5D
:1005C0001B2F28F40038BFEF1B0740F009C00F377E
:1005D000120508F405C00FE710E002C000E81FEFA5
:1005E0000093840010938500089500918400B091D9
:1005F00081000B0F10918500B09182001B1F20E03D
:100600003091850033230AF42A95B09183002B1F83
:100610001AF4203F40F00AC02F3008F407C00FEF53
:100620001FEF2FE003C000E010E020EF30916300E7
:10063000B0919C003B1718F4323030F009C0B091F3
:100640008500BB235AF004C0B0918500BB2332F46F
:1006500000938100109382002093830008952091DD
:10066000D80000918400000F10918500111F78DFE1
:1006700011232AF40038BFEF1B0740F009C00F37E1
:10068000120508F405C00FE710E002C000E81FEFF4
:10069000002352F0B0916200B01B0B2F18F0013014
:1006A00008F00AC001E008C000950F5FB091620039
:1006B0000B0F08F001C00FEF009386000895209102
:1006C000D90000918200109183004ADF11232AF49F
:1006D0000130BFEF1B0740F009C00F3F120508F4BF
:1006E00005C00FEF10E002C001E01FEF112352F030
:1006F000B0918600B01B0B2F18F0013008F00AC033
:1007000001E008C000950F5FB09186000B0F08F064
:1007100001C00FEF0093630008950FEF677F71FD35
:1007200029C072FD09C06860B0917B00BA3020F02A
:10073000B52DB03408F4677FB091D500BB23D1F05C
:10074000B0917B00BB23B1F00FEF10917B00DDDE99
:10075000F894B091730072FDB5E00B9F112D002D40
:100760007894112309F00FEFB0919F000B1710F44C
:1007700000919F0000939E00089500917A001091CF
:100780007B0000541140B0919E0010F4BA9501C056
:10079000B39511F0B0939E000895C1D3B2E073FDFC
:1007A000B1E0B7B9B6B1B068B064B6B966DEB2E070
:1007B00073FDB1E0B7B9B6B1B068B064B6B9B6B15F
:1007C000B6FDFDCF04B115B1B6B1BF77B6B9F8D358
:1007D00024E72093AA00222309F441C030E030939B
:1007E000AB00732E7694622E6694620E731E262DD5
:1007F000372D0217130778F08090AA00B4E7B80DE0
:10080000B093AA008090AB00B0E0B81DB093AB00ED
:10081000260D371DEECF8090AA009090AB0010916E
:10082000AB0016950091AA0007951695079523E051
:10083000169507952A95E1F72091B7002A9529F496
:100840002092AA002092AB000AC02A9521F0800EC7
:10085000911E2A95E1F78092AA009092AB0008952C
:100860002091B700B6B1B6FDFBCF04B115B1B6B15A
:10087000BF77B6B9B091AC00B395B093AC00B830C7
:1008800060F12092AC00B091D400BB2321F1112380
:1008900029F0B091AD00BF3F61F009C0B091AD004B
:1008A0000B1739F020F4BB2321F0BA9502C0B395A1
:1008B000E1F300919C00B093AD00B83850F400EC27
:1008C000BD3738F400E8B23720F400E4B73608F456
:1008D00000E000939C00777F0895B0919C00B39551
:1008E00011F0B0939C0001E00093DE0089CBB09141
:1008F000AC00B73009F47860089502E3F894B09141
:10090000DA000B9F012D000C001F7894B0919C0021
:100910000B1710F000919C0000936100009363009E
:10092000502E0093640000939F00089520927A0057
:10093000B0EFB0937B000895F8940CB51DB52091ED
:100940007400789430917500609076000093750083
:1009500010937600031B160971FD03C076FD81C05C
:100960002BC070907700209377002709222311F085
:100970000FEF1FEF8090780090907900309378000F
:10098000609279006918161910937C000091750027
:10099000109176000819190920917A0030917B0096
:1009A00036952795020F131F10F40FEF1FEF0093DA
:1009B0007A0010937B0029C020917A0030917B004F
:1009C0003901B4E08B2EB2E09B2E343010F08A94C3
:1009D0009A94383010F08A949A94769467948A9412
:1009E000E1F726193709992021F0169507959A9471
:1009F000E1F7200F311F20937A0030937B0028F419
:100A00003FEF30937A0030937B00323008F470640B
:100A100071FF02C0B3E00DC0B091C600009171003B
:100A2000023838F0B395003A08F0B395B63008F0C4
:100A3000B5E09B2EB4E08B2E10917B0000917A00E4
:100A400024E0169507952A95E1F70819120928F070
:100A5000B02FB250B12FB20910F402E010E09801AB
:100A600026C020917A0030917B00390176946794FA
:100A70006694669466942619320906950695200FA9
:100A8000321D20937A0030937B00323008F07F7B58
:100A900004E0369527953695279526952695201BB3
:100AA00010F0223008F422E089019090C60060FD29
:100AB000FECFE0908C00F0908D006160B9B7B0611E
:100AC000B9BF380176FD44C07694679400938C00DA
:100AD00010938D00B92DB330E1F0B0FD04C0060DC8
:100AE000171D930106C0000F111F0250120922E0CA
:100AF00030E0B92DB33068F020938E0030938F0032
:100B0000009388001093890060928A0070928B0095
:100B10003DC000938E0010938F0020938800309387
:100B2000890060928A0070928B0071FF10C0B091B2
:100B30006D00B33060F000918F0010917C0015952E
:100B4000010F28F022F020928E0000938F001EC02B
:100B5000669400938C00B92DB33091F0B0FD03C0C2
:100B6000060D262D03C0000F025022E0B92DB33030
:100B700038F020938E000093880060928A0006C0AF
:100B800000938E002093880060928A0000917D007F
:100B900002FD0350013029F495FD0AC0B6E0B7B953
:100BA00009C0023019F4B7E0B7B904C095FDF6CF1B
:100BB000B0E0B7B90091A400000F10F4BBE60B271A
:100BC0000093A40060FDFECFB2E0B0936E006160C0
:100BD000B9B7B061B9BFB72FB670A1F020917A0054
:100BE00030917B0036952795F8940CB51DB5020F12
:100BF000131F1BBD0ABD6160B0E1B8BFB9B7B061DA
:100C0000B9BF78940895606120927E0020E067FD6E
:100C100020E206C0606120927E0020E267FD20E0B5
:100C2000789401E076FD11C0B72FB67009F06F7EA1
:100C3000B0917B00B55048F002E0B55020F003E0E1
:100C4000B55008F006E071FD0AE060FD12C0B091F9
:100C50007E00BB2371F071FF08C0B0916D00B3300E
:100C600020F0B0916E00BA9519F4789470615CC070
:100C7000AEDF789400000000F89476FD16C0109165
:100C80007B00173008F017E0B5E01B0F72FD10E194
:100C900083FF110F62FF110F71FD12E8B4B5609070
:100CA000A100B61990F2B10B80F2B0B7B77FB0BF18
:100CB000B8B1B0B7B860B0BFB0917E00B395B09393
:100CC0007E00B8B176FD06C0B1E071FDB2E0BA9524
:100CD000F1F7B8B1B072B21709F01BC071FF05C0CF
:100CE00003950A3008F00395B0CF64FF99CF6F7E6B
:100CF0003CB56DB470907A0080907B00370D681C15
:100D00006BBC3ABD6160B0E1B8BFB9B7B061B9BF03
:100D100087CFB0916D00B23008F482CF64FD80CFF0
:100D20000A9509F092CF7F7E20918E0030918F003E
:100D3000F894B0E1B8BF0CB51DB5020F131F1BBD71
:100D40000ABDE0908800F09089006160B9B7B06199
:100D5000B9BF7894B72FB67039F0B0916D0072FFBB
:100D6000B395B0936D0009C074FF07C067FD05C05F
:100D700064FD03C0BF91BF9174C4089500E063FF98
:100D800003C064FF01C001E0F89410917100B7E066
:100D90001B9F212D102D7894200F269517952695B1
:100DA00017952695179510937100183718F4B8E722
:100DB000B093710000917100B09172000B1720F098
:100DC00060629598AC98C09860FDFECFE0908A0074
:100DD000F0908B006160B9B7B061B9BF0895B2E01F
:100DE00095FD07C0F894B0937D00AD9A94987894DF
:100DF000E5C0F894B0937D00AD9AAB987894DEC0CE
:100E0000B3E082FF24C095FD11C002E0F894B093D6
:100E10007D00E6E8F0E00093B300C098AB9A62FF73
:100E200002C0AC9A01C0AD987894C8C002E0F894B2
:100E3000B0937D00E6E8F0E00093B3009598949AB3
:100E400062FF02C0AC9A01C0AD987894B7C095FD1E
:100E50000BC0F894B0937D00E0E7F0E0C09862FF2B
:100E600001C0AC9A7894AAC0F894B0937D00E0E7F2
:100E7000F0E0959862FF01C0AC9A78949FC0B4E00E
:100E800095FD07C0F894B0937D00949AAB98789440
:100E900095C0F894B0937D00AB9A949878948EC0E6
:100EA000B5E082FF24C095FD11C001E0F894B09335
:100EB0007D00ECE7F0E00093B300AC98AD9A62FFE0
:100EC00002C0959A01C09498789478C004E0F89490
:100ED000B0937D00E0E9F0E00093B300AC98AD9AE8
:100EE00062FF02C0C09A01C0AB98789467C095FDBC
:100EF0000BC0F894B0937D00EAE6F0E0AC9862FF96
:100F000001C0959A78945AC0F894B0937D00E6E7B2
:100F1000F0E0AC9862FF01C0C09A78944FC0B6E090
:100F200095FD07C0F894B0937D00AB9AAD98789486
:100F300045C0F894B0937D00949AAD9878943EC0E3
:100F4000B1E082FF24C095FD11C004E0F894B09395
:100F50007D00E0E9F0E00093B3009598949A62FF79
:100F600002C0C09A01C0AB98789428C001E0F89400
:100F7000B0937D00ECE7F0E00093B300C098AB9A2B
:100F800062FF02C0959A01C09498789417C095FDAD
:100F90000BC0F894B0937D00E6E7F0E0959862FF0F
:100FA00001C0C09A78940AC0F894B0937D00EAE634
:100FB000F0E0C09862FF01C0959A78946F7D089523
:100FC00029E630E0F9012092B3009598AC98C098DA
:100FD000949AAD9AAB9A6B7F0895A4EBB0E00FEFB3
:100FE0000D930D930D930D9303E00D9304E00D937A
:100FF0000BE00D9303E00D9301E00D9301E00D93E1
:10100000A0ECB0E000E00D930FEF0D930D930D9366
:101010000D930D9303E00D930FEF0D930FEF0D93D1
:101020000D9305E20D9300ED0D930AEF0D930AEF7A
:101030000D9304E00D930FEF0D9301E00D9300E08D
:101040000D930AE70D930FEF0D9301E00D9301E06F
:101050000D9301E00D9303E00D9308952091BB00E3
:101060008B7F233009F48460B091BC00B33019F059
:101070009F7DB1FD90629F7BB091BD00B1FD9064FA
:10108000223011F0886001C0877F08950A95E00F33
:10109000F21DB4910895ECE1F0E00091B400F6DFA8
:1010A000B093D800ECE1F0E00091B500EFDFB09331
:1010B000D900EAE2F0E00091BA00E8DFB093DA008C
:1010C000B091D0000FEF1CE0B23011F400EA1AE04A
:1010D000B33011F402E815E000937200109373002E
:1010E000E8E3F0E00091D700D1DFB093A2000895CB
:1010F00008952091CA003091CB00B091BC00B3306C
:1011000009F43E5097FF02C020E03FEFB32FB21B1F
:101110006B2EB25810F4B2E86B2E00E00395609E7F
:10112000B12DBD57D8F30093AE0008959068E1DF6C
:10113000AAD920E030E0B0E16B2EA1D9B0919700A0
:101140002B0F321D6A94C9F7B4E036952795BA95EE
:10115000E1F7822E9F77CDDF08954A3028F04A507C
:10116000A1D995D994D9F9CF33D3413028F04A95F4
:10117000A2D98DD98CD9F9CF089520E030E00FEFB6
:10118000A0B396FDA095A2FF2395A2FD33951CE088
:10119000B2E0BA95F1F71A95D9F70A9589F708954B
:1011A0004091DE00442339F04091DD00442319F0E2
:1011B00040E0409397000895F894E3E0F0E0B9E050
:1011C000B7BFB491B078C1F3F894A895B1B5B86140
:1011D000B1BDB0E0B1BDB4E0BEBFBFE5BDBFF0DEA4
:1011E000B0E0B8BBB1E1B7BBB8E2B5BBB8E3B4BBE4
:1011F000B0E1B2BBB0E3B1BB2224A0E0B0E02D92DD
:10120000AA31E9F7A0E6B0E00FEF2D920A95E9F7D1
:10121000B1E0B093A4000091CC000093AF00DDDEFC
:1012200050D2B6B1B460B6B9B1E0B0936A00F894E8
:101230004AE04093AF002BD935D925D936D923D9E7
:1012400037D925D9C5D2C4D2C3D2C2D2C1D2C0D215
:10125000BFD22ED918D929D916D924D9B9D2B8D202
:10126000F89446E04093B70058EE43E0A42E509324
:10127000DF00A092E00040E04093DD0041E04093B9
:10128000DE0000E00093DB0078DF353008F13A3F04
:1012900020F42FEF2093DB001BC0E0E0FCE1B591D0
:1012A000B43E39F4B591B03E21F4B591BF3F09F495
:1012B0000CC0E0E0F395F395B591B83F49F4B591D2
:1012C000B43931F4B591BA3A19F4EE27F695099488
:1012D0002091DB002F3F01F0C1DEDDDE09DF009150
:1012E000CC000093AF006CDEB2E0B3BFB2E0BEBD95
:1012F000B2E0B5BDB1E5B8BFB9BFB0B7B77FB0BF59
:10130000B8B1B0B7B860B0BFB8D8789446DA8D7FBE
:101310006D7FA0E1BA2EAAE0AA2EB3E096FDB2E05E
:10132000B5BFB0E4BBBFBB27B064BABFB0D8B3E0B1
:1013300096FDB2E0B5BFBB27B064BABF8D7F06C0D3
:101340009ED802E0B0919700B017C8F30091DB007F
:101350000F3F49F478949BD8F8944091DC00FDDE6F
:1013600037D236D2E4CFF8948ED8A5D8A4D8A3D853
:1013700078948DD820926A0020926B0020926C00A5
:10138000B0916B00B395B0936B00BF3F69F5B0911E
:101390006C00B395B0936C00B091CE0009E1BA95A2
:1013A00059F002E3BA9541F00DE7BA9529F00AEF3A
:1013B000BA9511F020926C00B0916C00B017A0F0BB
:1013C000B0916C00BA95B0936C00B4EBB0936B0025
:1013D000B091CD00B093AF00F8946DD87894B091EF
:1013E000CC00B093AF0051D84CD8B0916800BB236B
:1013F00019F485FF01C034CF01E085FD01C006E08E
:10140000B0919700B01708F4BBCFB091BC00B350B7
:1014100009F03BD8B0916800BB2309F421CFF894C0
:10142000CFDD209261002092620020926300522C56
:10143000209264002092A3007894B091B900BB0F71
:10144000B093A00020927F00209280002092810023
:1014500020928200209283002092AC0060E070E035
:1014600020927100B8E0B093AC00786006D8B2E08A
:1014700073FDB1E0B7B9B6B1B068B064B6B9B6B192
:10148000B6FDFDCF04B115B1B6B1BF77B6B9112322
:1014900009F00FEF0093AD00E3D9B8E0B093AC00D2
:1014A00078608090BB00B2E0B093BB00D7DD809243
:1014B000BB00F894BFEFB0939C001FDAB0916100BD
:1014C000B0939C00B0939D00B0939E007894B1E0DF
:1014D000B0936100B09363005B2EB0936400B0934F
:1014E000A600B0919B00B093A500B091BC00B330B2
:1014F00019F49F7D87FD90627160726020926D008B
:101500000EDD1EDD13DA18DA11DA16DA0FDA06C08C
:10151000F894A4DD78942092AC00777F7BDB42D8EE
:101520002DDC5DDC09DA6FDB66FD3DD876FFF5D892
:1015300076FD23D923DC64DCFFD96CDB66FD55D84E
:101540001DDC9DDCF9D95FDB66FD89D817DCA8DCE2
:10155000F3D960DB66FDB3D811DCE1DCEDD953DBF8
:10156000B2E073FDB1E0B7B9B6B1B068B064B6B976
:1015700005DCE6DCE1D974D971FF23C067FD21C029
:10158000B0919F00B0939C00B0939D00B0919B00E0
:10159000B093A500B1E0B093A60018E12CE0B091A3
:1015A0006D00B11740F07D7F746020936F00BFEF36
:1015B000B0939C0006C0B0919700B13008F0AECF58
:1015C0005AC072FF10C067FD0EC0B0916F00BA958F
:1015D00011F47B7F9DCFB0936F00B0919700B13035
:1015E00008F09CCF48C020927000B0919A0002E8A9
:1015F000B01708F040C085FF04C0B0916800BB235D
:10160000D1F1B091BC00B33081F495FD03C087FDEA
:1016100004C00BC087FF01C008C067FD06C060683A
:10162000B0919F00B0939C008ECF00EF67FF05C084
:10163000B0919F00B0939C0000E2B0917B00B01786
:1016400008F46CCF67FF17C06F779F7D87FD9062AE
:101650007460B2E1B0936F00B0919F00B0939C00B2
:101660005DCFB0917000B395B0937000B0919700CA
:10167000BB2309F002C020927000F894A1DC809096
:10168000BB00B2E0B093BB00E9DC8092BB002092CB
:1016900061002092620020926300522C209264002C
:1016A0002092A0007E7F7894E8D68ADCB6B1B46040
:1016B000B6B985FF05C0B0917000B53008F0D0CD47
:1016C0005BCEEDE0F0E023D00A3509F01BC0EEE080
:1016D000F0E01DD0053A09F015C03AE0A4EBB0E007
:1016E000E3E0F0E014D00D9331963A95D9F738E164
:1016F000A0ECB0E0EFE0F0E00AD00D9331963A951F
:10170000D9F702C06ADC0AD0E7E2F0E00895E19977
:10171000FECFEEBBFFBBE09A0DB308951ED03AE0BA
:10172000A4EBB0E0E3E0F0E00D910FD031963A95F4
:10173000D9F738E1A0ECB0E0EFE0F0E00D9105D092
:1017400031963A95D9F712D00895E199FECF0DBBA5
:10175000EEBBFFBBE29AE19A0895EDE0F0E00FEFF7
:10176000F4DFEEE0F0E00FEFF0DF0895EDE0F0E001
:101770000AE5EBDFEEE0F0E005EAE7DF08953091FF
:10178000B0000091B100313011F40093B800323054
:1017900011F40093B900333011F40093BA003430DF
:1017A00011F40093C600353011F40093BB003630BD
:1017B00011F40093D700373011F40093D000383083
:1017C00011F40093BC00393011F40093BD0008956A
:1017D00025E05DD62A95E9F7089564D666D668D6E1
:1017E0006AD64FD65FD661D663D665D64AD65AD664
:1017F0005CD65ED660D608955ED65AD656D652D6F8
:1018000040D659D655D651D64DD63BD654D650D6BD
:101810004CD648D608958090B0009090B10042D642
:1018200041D640D62ED68A94D1F745D62AD69A9458
:10183000E1F70895F894D1DF7894CADFC9DFB1E009
:10184000B093B000B1E0B093B1002092B200F89430
:10185000E2DF7894B5E06B2E7090970018D6B091C7
:1018600097007B16C9F7B13018F0B63C40F107C0BD
:1018700086DFF89453DFB1DFB8E0B1BDA9DF6A9429
:1018800059F7B091B200B395B093B200B33008F4F9
:10189000DECF9EDFB091B100B395B093B100F89464
:1018A000B091B000BA95EEE3F0E0EB0FF21D0491B9
:1018B00078940395B091B100B01708F4C6CF88DFD3
:1018C00087DFB091B000B395B093B000B091B00095
:1018D000BA3008F4B7CF81DBF89420DFB8E0B1BDAF
:0418E00077DF6ACC78
:00000001FF
