:020000020000FC
:100000008BCDC8C10000000020C0000090C00000DF
:1000100000009AC000000000000000000203040677
:10002000080C10182030406080000406080C1018DE
:100030002030406080A0C00000070F1F3F000D0D62
:100040000403060D0502030202004FB662FD0EC056
:10005000552009F00994C52DC095089483FDC795D6
:10006000C4BDC093A10064604FBE1895C0916400E8
:10007000089483FDC795C4BDC093A1006B7FC09158
:100080006400CF3F09F41CC04FBE9598AC98C0984F
:10009000189575FD0EC065FD0CC0C091B300C0FD84
:1000A0009498C1FDAD98C2FDAB98CAEFC095CA95B2
:1000B000F1F79598AC98C0982092A1004FBE189582
:1000C00024BCCC27C064C8BF6460F6CFC4CF70FF27
:1000D000C2CF65FDC0CF959ABECF70FFBCCF65FD86
:1000E000BACFAC9AB8CF70FFB6CF65FDB4CFC09A87
:1000F000B2CF949A70FFAFCF65FDADCFC7E0CA9580
:10010000F1F7959AA8CFAD9A70FFA5CF65FDA3CF63
:10011000C7E0CA95F1F7AC9A9ECFAB9A70FF9BCF20
:1001200065FD99CFC7E0CA95F1F7C09A94CF4FB655
:10013000C9B7CF7EC9BF6E7FCCB5CE0DDDB5DF1D93
:10014000DBBDCABD4FBE18953FB68F7EABB7A0745E
:10015000A2118061A0E0ABBFA9B7AE7FA9BF789420
:10016000A0916800AA2341F085FD34C0A0916800E9
:10017000AA95A09368002EC040E050E085FD14C011
:10018000A0B396FDA095A2FD46ECA3E096FDA2E0EB
:10019000A5BFAA27A064AABF8D7FA0B396FDA09596
:1001A000A2FD56EC451741F7A0E461FDA09368005D
:1001B00085FD03C0A0E4A093680040939700403001
:1001C00009F450E0463C09F453E65093DC004091BA
:1001D0009700816085FD0EC0A0916900AA2331F0CF
:1001E000A0916900AA95A093690004C08061AA2724
:1001F000A064AABF80FF0AC0A09197004A2F61FFA8
:100200008E7F85FD01C000C0409361004091B60023
:10021000443009F004C0A0916100A0936300A52DB3
:10022000A03408F06860A0916000A395A0936000DE
:1002300051F0F894A9B7A160A9BF84FF02C0A0E45F
:10024000ABBF3FBE1895A0917400A395A093740016
:1002500042E050916800552329F085FF03C05A956C
:1002600050936800A0919700A13018F020929A0056
:100270000DC020929B002092A500A0919A00AF5F34
:10028000A0939A0018F0AFEFA0939A00B09061008D
:100290005091B600523049F466FF91F0A2E3BA16CD
:1002A00078F0A0918700A0936100533049F466FF75
:1002B00039F0A2E3BA1620F0A091C200A093610029
:1002C000509162005B1521F010F05A9501C05395D2
:1002D000509362004A95D1F65091A500539509F4C8
:1002E0005A955093A500A091A600AA95A093A600A8
:1002F00009F046C0A1E0A093A60045E0A091A700A8
:100300005A17F0F1A091A8005A1728F441E0A3E091
:10031000A093A60007C0A091A9005A1718F441E0C5
:100320004093A600D0909D00C0906300DC14A8F01C
:10033000A091B600A430D9F066FD0FC0C0929D0018
:10034000539511F0A091A700A093A500A1E0A09360
:10035000A600ACE3A093620013C0A0919D00A40F7F
:1003600020F45FEF50939D0002C0A0939D00A091E8
:100370009D00AF3F29F4AFEFA0939B00A093A50091
:10038000F894A9B7A160A9BF84FF02C0A0E4ABBFE5
:100390003FBE18953FB64CB55DB58F7EABB7A07428
:1003A000A2118061A0E0ABBFA9B7AE7FA9BF7894CE
:1003B00081FD23C0A2E096FDA3E0A5BF8260A0B3AB
:1003C00096FDA095A2FF05C040936500509366007E
:1003D0003CC0A3E096FDA2E0A5BFAA27A064AABFE7
:1003E0008D7F85FF01C02EC040E0A0B396FDA09593
:1003F000A2FD28C04093970022C0A3E096FDA2E092
:10040000A5BF8D7FA1E0A093960000C0A0916500DC
:100410004A1BA09166005A0B552309F046ECA42E06
:10042000A42FA6954A0F521D46954093DC004A2DF5
:100430004650440F4395463C520508F046EC409325
:1004400097008160A0E4A0936800A0E2A0936900F7
:10045000F894A9B7A160A9BF84FF02C0A0E4ABBF14
:100460003FBE189511E00AC013E008C01AE006C0AC
:100470001EE104C014E602C018EC00C005E1BB2771
:10048000BA95F1F70A95D9F71A95C1F708952AE3B5
:1004900038E709C020E33CE806C02AE234EB03C099
:1004A00025E238EC00C012E095FD9F7D95FF90623B
:1004B000BB27AD9ABA95F1F7AC9ABA95F1F7AC981B
:1004C000BA95F1F7AD98BA95F1F7959AB091AF005A
:1004D000BA95F1F79598B7E8BA95F1F71A9521F71B
:1004E000022FB22FBA95F1F70A95D9F73A95D9F6B6
:1004F000AD9A0895221B39E0001F3A9509F408953A
:10050000221F211B18F4210F8894F6CF0894F4CFF2
:10051000622C722CB0E08894B395221F331FE0F751
:10052000379527958894912E802E020B130B10F48B
:10053000192D082D10F4889401C00894661C771CAE
:10054000BA9571F7172D062D0895322D11232AF42F
:100550003A9500951095031B130BF894029F712C8C
:10056000002D129F912C802C7894780C172D921CC2
:10057000292DB4E06B2E2695179507956A94D9F727
:10058000332321F000951095031B130B0895009160
:10059000B600043009F474C0B0919700B35198F0DC
:1005A000B72FB67081F466FD2BC005E09090C800AF
:1005B000B92DBA9521F00AE0BA9509F002E1B0919F
:1005C0007B00B01BE0F066FF0AC0B0919F00B093C3
:1005D0009D00BFEFB093A500B1E0B093A600B0912D
:1005E0006100B093630020927F00209280002092EF
:1005F000810020928200209283006F7B41C0606462
:100600009090C800B92DBA9579F4B0916200B09578
:10061000BB1FBB1F1B2FB7950B2FB12FB170B3950D
:100620001B2FB02FBE7F25C0B92DBA95BA9581F486
:10063000B0916200B095BB1FBB1FBB1F1B2FB795AE
:100640000B2FB12FB370B3951B2FB02FBC7F14C0ED
:10065000B0916200B095BB1FBB1FBB1FBB1F1B2F00
:10066000B7950B2FB12FB770B395B3951B2FB02F44
:10067000B87FB0540B2F120900937F0010938000B5
:10068000089510917B00169500917A000795B0911E
:100690007F00B01B0B2FB0918000B10B1B2F28F4F3
:1006A0000038BFEF1B0740F009C00F37120508F4F0
:1006B00005C00FE710E002C000E81FEF00938400C0
:1006C00010938500089500918400B09181000B0F74
:1006D00010918500B09182001B1F20E030918500B1
:1006E00033230AF42A95B09183002B1F1AF4203F7C
:1006F00040F00AC02F3008F407C00FEF1FEF2FE0C3
:1007000003C000E010E020EF30916300B0919C0046
:100710003B1718F4323030F009C0B0918500BB238C
:100720005AF004C0B0918500BB2332F400938100DD
:10073000109382002093830008952091D8000091A7
:100740008400000F10918500111FFFDE11232AF491
:100750000038BFEF1B0740F009C00F37120508F43F
:1007600005C00FE710E002C000E81FEF002352F0C1
:10077000B0916200B01B0B2F18F0013008F00AC0D6
:1007800001E008C000950F5FB09162000B0F08F008
:1007900001C00FEF0093860008952091D9000091C9
:1007A000820010918300D1DE11232AF40130BFEFC3
:1007B0001B0740F009C00F3F120508F405C00FEFFA
:1007C00010E002C001E01FEF112352F0B09186004B
:1007D000B01B0B2F18F0013008F00AC001E008C070
:1007E00000950F5FB09186000B0F08F001C00FEF6E
:1007F0000093630008950FEF677F71FD29C072FDBC
:1008000009C06860B0917B00BA3020F0B52DB034DB
:1008100008F4677FB091D500BB23D1F0B0917B0085
:10082000BB23B1F00FEF10917B0064DEF894B09120
:10083000730072FDB5E00B9F112D002D78941123EC
:1008400009F00FEFB0919F000B1710F400919F007B
:1008500000939E00089500917A0010917B0000544F
:100860001140B0919E0010F4BA9501C0B39511F0FB
:10087000B0939E000895EFD3B2E073FDB1E0B7B935
:10088000B6B1B068B064B6B9EDDDB2E073FDB1E009
:10089000B7B9B6B1B068B064B6B9B6B1B6FDFDCF00
:1008A00004B115B1B6B1BF77B6B926D424E7209309
:1008B000AA00222309F441C030E03093AB00732E2C
:1008C0007694622E6694620E731E262D372D0217C3
:1008D000130778F08090AA00B4E7B80DB093AA008F
:1008E0008090AB00B0E0B81DB093AB00260D371D73
:1008F000EECF8090AA009090AB001091AB001695BF
:100900000091AA0007951695079523E0169507957F
:100910002A95E1F72091B7002A9529F42092AA00A0
:100920002092AB000AC02A9521F0800E911E2A95D4
:10093000E1F78092AA009092AB0008952091B70051
:10094000B6B1B6FDFBCF04B115B1B6B1BF77B6B93C
:10095000B091AC00B395B093AC00B83060F1209288
:10096000AC00B091D400BB2321F1112329F0B09148
:10097000AD00BF3F61F009C0B091AD000B1739F079
:1009800020F4BB2321F0BA9502C0B395E1F30091A6
:100990009C00B093AD00BC3B50F400ECBE3A38F480
:1009A00000E8B03A20F400E4B23908F400E0009323
:1009B0009C00777F08952130B1F00F3FB3E01B0713
:1009C00090F4B4E7BB2379F0B091AA000B17B09173
:1009D000AB001B0740F4B0919C00BB2359F0BA95C3
:1009E000B0939C0007C0B0919C00BF3F19F0B39535
:1009F000B0939C0000919C00B0916300B01B10F478
:100A000000916300B0919D000B1750F000919D0084
:100A1000B0919D00BF3F21F0B0919D00B0939C002C
:100A2000502E00936400B091AC00B73009F47860A8
:100A3000089502E3F894B091DA000B9F012D000CA9
:100A4000001F7894B0919C000B1710F000919C004F
:100A50000093610000936300502E009364000093A4
:100A60009F00089520927A00B0EFB0937B00089524
:100A7000F8940CB51DB520917400789430917500F0
:100A8000609076000093750010937600031B1609A2
:100A900071FD03C076FD81C02BC07090770020935C
:100AA00077002709222311F00FEF1FEF80907800C5
:100AB0009090790030937800609279006918161947
:100AC00010937C00009175001091760008191909A7
:100AD00020917A0030917B0036952795020F131FE5
:100AE00010F40FEF1FEF00937A0010937B0029C0E2
:100AF00020917A0030917B003901B4E08B2EB2E076
:100B00009B2E343010F08A949A94383010F08A94E6
:100B10009A94769467948A94E1F726193709992074
:100B200021F0169507959A94E1F7200F311F209335
:100B30007A0030937B0028F43FEF30937A003093B3
:100B40007B00323008F4706471FF02C0B3E00DC066
:100B5000B091C60000917100023838F0B395003AA8
:100B600008F0B395B63008F0B5E09B2EB4E08B2EBC
:100B700010917B0000917A0024E0169507952A9544
:100B8000E1F70819120928F0B02FB250B12FB209BD
:100B900010F402E010E0980126C020917A00309114
:100BA0007B0039017694679466946694669426195E
:100BB000320906950695200F321D20937A00309356
:100BC0007B00323008F07F7B04E036952795369520
:100BD000279526952695201B10F0223008F422E058
:100BE00089019090C60060FDFECFE0908C00F090EF
:100BF0008D006160B9B7B061B9BF380176FD44C0FE
:100C00007694679400938C0010938D00B92DB330C7
:100C1000E1F0B0FD04C0060D171D930106C0000FE2
:100C2000111F0250120922E030E0B92DB33068F0F4
:100C300020938E0030938F000093880010938900DA
:100C400060928A0070928B003DC000938E001093DA
:100C50008F00209388003093890060928A00709200
:100C60008B0071FF10C0B0916D00B33060F0009147
:100C70008F0010917C001595010F28F022F0209232
:100C80008E0000938F001EC0669400938C00B92DD7
:100C9000B33091F0B0FD03C0060D262D03C0000F48
:100CA000025022E0B92DB33038F020938E0000932B
:100CB000880060928A0006C000938E00209388000E
:100CC00060928A0000917D0002FD0350013029F4FA
:100CD00095FD0AC0B6E0B7B909C0023019F4B7E013
:100CE000B7B904C095FDF6CFB0E0B7B90091A40044
:100CF000000F10F4BBE60B270093A40060FDFECFAD
:100D0000B2E0B0936E006160B9B7B061B9BFB72F00
:100D1000B670A1F020917A0030917B00369527952E
:100D2000F8940CB51DB5020F131F1BBD0ABD616001
:100D3000B0E1B8BFB9B7B061B9BF78940895606148
:100D400020927E0020E067FD20E206C060612092D4
:100D50007E0020E267FD20E0789401E076FD11C07E
:100D6000B72FB67009F06F7EB0917B00B55048F098
:100D700002E0B55020F003E0B55008F006E071FD48
:100D80000AE060FD12C0B0917E00BB2371F071FFDC
:100D900008C0B0916D00B33020F0B0916E00BA95EC
:100DA00019F4789470615CC0AEDF789400000000A4
:100DB000F89476FD16C010917B00173008F017E00C
:100DC000B5E01B0F72FD10E183FF110F62FF110FE1
:100DD00071FD12E8B4B56090A100B61990F2B10BA4
:100DE00080F2B0B7B77FB0BFB8B1B0B7B860B0BF2E
:100DF000B0917E00B395B0937E00B8B176FD06C089
:100E0000B1E071FDB2E0BA95F1F7B8B1B072B217C6
:100E100009F01BC071FF05C003950A3008F0039567
:100E2000B0CF64FF99CF6F7E3CB56DB470907A00FF
:100E300080907B00370D681C6BBC3ABD6160B0E1EF
:100E4000B8BFB9B7B061B9BF87CFB0916D00B2304C
:100E500008F482CF64FD80CF0A9509F092CF7F7E9F
:100E600020918E0030918F00F894B0E1B8BF0CB59E
:100E70001DB5020F131F1BBD0ABDE0908800F09046
:100E800089006160B9B7B061B9BF7894B72FB67007
:100E900039F0B0916D0072FFB395B0936D0009C049
:100EA00074FF07C067FD05C064FD03C0BF91BF911B
:100EB000E6C4089500E063FF03C064FF01C001E0E1
:100EC000F89410917100B7E01B9F212D102D78949C
:100ED000200F26951795269517952695179510930B
:100EE0007100183718F4B8E7B093710000917100E1
:100EF000B09172000B1720F060629598AC98C09882
:100F000060FDFECFE0908A00F0908B006160B9B781
:100F1000B061B9BF0895B2E095FD07C0F894B093F1
:100F20007D00AD9A94987894E5C0F894B0937D00D4
:100F3000AD9AAB987894DEC0B3E082FF24C095FDF3
:100F400011C002E0F894B0937D00E3E8F0E0009374
:100F5000B300C098AB9A62FF02C0AC9A01C0AD98D2
:100F60007894C8C002E0F894B0937D00E3E8F0E024
:100F70000093B3009598949A62FF02C0AC9A01C0A6
:100F8000AD987894B7C095FD0BC0F894B0937D00F0
:100F9000EDE6F0E0C09862FF01C0AC9A7894AAC078
:100FA000F894B0937D00EDE6F0E0959862FF01C003
:100FB000AC9A78949FC0B4E095FD07C0F894B093C4
:100FC0007D00949AAB98789495C0F894B0937D0086
:100FD000AB9A949878948EC0B5E082FF24C095FDBA
:100FE00011C001E0F894B0937D00E9E7F0E00093D0
:100FF000B300AC98AD9A62FF02C0959A01C0949874
:10100000789478C004E0F894B0937D00EDE8F0E0C7
:101010000093B300AC98AD9A62FF02C0C09A01C0C1
:10102000AB98789467C095FD0BC0F894B0937D00A1
:10103000E7E6F0E0AC9862FF01C0959A78945AC058
:10104000F894B0937D00E3E7F0E0AC9862FF01C054
:10105000C09A78944FC0B6E095FD07C0F894B0935D
:101060007D00AB9AAD98789445C0F894B0937D001C
:10107000949AAD9878943EC0B1E082FF24C095FD6B
:1010800011C004E0F894B0937D00EDE8F0E0009327
:10109000B3009598949A62FF02C0C09A01C0AB98C1
:1010A000789428C001E0F894B0937D00E9E7F0E07F
:1010B0000093B300C098AB9A62FF02C0959A01C03A
:1010C0009498789417C095FD0BC0F894B0937D0068
:1010D000E3E7F0E0959862FF01C0C09A78940AC0F7
:1010E000F894B0937D00E7E6F0E0C09862FF01C09D
:1010F000959A78946F7D089526E630E0F901209264
:10110000B3009598AC98C098949AAD9AAB9A6B7FBF
:101110000895A4EBB0E007E00D9307E00D9301E024
:101120000D9304E00D930FEF0D930D9309E00D93D4
:1011300002E00D9301E00D9301E00D93A0ECB0E00F
:1011400000E00D9300E00D9304EB0D930FEF0D9372
:101150000D930D9303E00D930FEF0D9301E00D93AD
:101160000FEF0D9305E20D9300ED0D9308E70D933E
:1011700008EC0D9304E00D930FEF0D9301E00D9338
:1011800000E00D930AE70D930AE00D9301E00D9343
:1011900001E00D9301E00D930FEF0D930895209161
:1011A000BB008B7FB091BC009F7DB1FD90629F7BA7
:1011B000B091BD00B1FD9064223011F0886001C093
:1011C000877F08950A95E00FF21DB4910895ECE130
:1011D000F0E00091B400F6DFB093D800ECE1F0E06D
:1011E0000091B500EFDFB093D900EAE2F0E00091A2
:1011F000BA00E8DFB093DA000091D300002309F4CD
:101200000395013108F001E1B02FB00FB00FB0939A
:10121000A7001B2FB10FB10FB00FB093A800B10FF3
:10122000B00FB00FB093A900B091D0000FEF1CE049
:10123000B23011F400EA1AE0B33011F402E815E01C
:101240000093720010937300E8E3F0E00091D70080
:10125000B9DFB093A200089508952091CA0030919B
:10126000CB00B091BC00B33009F43E5097FF02C0F0
:1012700020E03FEFB32FB21B6B2EB25810F4B2E850
:101280006B2E00E00395609EB12DBD57D8F30093FF
:10129000AE0008959068E1DFEBD820E030E0B0E1E7
:1012A0006B2EE2D8B09197002B0F321D6A94C9F7CC
:1012B000B4E036952795BA95E1F7822E9F77CDDF7A
:1012C00008954A3028F04A50E2D8D6D8D5D8F9CF78
:1012D0009AD3413028F04A95E3D8CED8CDD8F9CF6B
:1012E000089520E030E00FEFA0B396FDA095A2FF97
:1012F0002395A2FD33951CE0B2E0BA95F1F71A955B
:10130000D9F70A9589F70895F894E3E0F0E0B9E099
:10131000B7BFB491B078C1F3F894A895B1B5B861EE
:10132000B1BDB0E0B1BDB4E0BEBFBFE5BDBFE4DE5E
:10133000B0E0B8BBB1E1B7BBB8E2B5BBB8E3B4BB92
:10134000B0E1B2BBB0E3B1BB2224A0E0B0E02D928B
:10135000AA31E9F7A0E6B0E00FEF2D920A95E9F780
:10136000B1E0B093A4000091CC000093AF00D1DEB7
:10137000BBD2B6B1B460B6B9B1E0B0936A00F8942C
:101380007BD885D875D886D873D887D875D83BD3FD
:101390003AD339D338D337D336D335D37ED868D878
:1013A00079D866D874D82FD32ED3F89446E04093DA
:1013B000B70000E00093DB0094DF132F120F1F3FF4
:1013C00041F4353028F13A3F40F42FEF2093DB0011
:1013D0001FC066D84DD861D8FCCFE0E0FCE1B591E4
:1013E000B43E39F4B591B03E21F4B591BF3F09F454
:1013F0000CC0E0E0F395F395B591B83F49F4B59191
:10140000B43931F4B591BA3A19F4EE27F695099446
:101410002091DB002F3F01F0C2DED9DE1DDF0091FD
:10142000CC000093AF0068DEB2E0B3BFB2E0BEBD57
:10143000B2E0B5BDB1E5B8BFB9BFB0B7B77FB0BF17
:10144000B8B1B0B7B860B0BF0DD8789414DA8D7F5A
:101450006D7FA0E1BA2EAAE0AA2EB3E096FDB2E01D
:10146000B5BFB0E4BBBFBB27B064BABF05D8B3E01B
:1014700096FDB2E0B5BFBB27B064BABF8D7F06C092
:10148000F3D702E0B0919700B017C8F30091DB00EA
:101490000F3F49F47894F0D7F8944091DC0011DFC5
:1014A000B2D2B1D2E4CF86C02092870001C0DCD78F
:1014B000B0916A00B13008F469C085FD18C0B091E0
:1014C0009700B63C08F462C0F894EAD77894D2D773
:1014D000B0919700B130C0F7F894D9D7C7D7D7D714
:1014E0007894C8D7B0919700B63CB0F3BEC2B8E0CC
:1014F0009B2E9068F894B1DE7894BCD7F8949F77CF
:10150000ACDE80909700B0919700B336789408F4E1
:1015100045C0A8D7F894C4D778949A9451F7BADE06
:10152000B82DB550B093CB00A7D7F8940AD270D29B
:101530007894BAE09B2E9068F8948FDE78949AD7CE
:10154000F8949F778ADE80909700B0919700B33629
:10155000789478F787D7F8949AD788D798D77894DB
:101560009A9449F797DEB82DBB5FB093CA0084D731
:10157000F894E7D15CD278947DD7F8946EDE7894B5
:10158000B0919700B63C08F498CF6FC200919700D5
:10159000B09187000B1710F0009387006BD701E024
:1015A000B091BC00B35009F405E0B0919700B017BA
:1015B00008F07CCFF8945CD773D75AD771D758D737
:1015C0006FD7789459D720926A0020926B002092AE
:1015D0006C00B0916B00B395B0936B00BF3F69F5A1
:1015E000B0916C00B395B0936C00B091CE0009E15E
:1015F000BA9559F002E3BA9541F00DE7BA9529F092
:101600000AEFBA9511F020926C00B0916C00B017FF
:10161000A0F0B0916C00BA95B0936C00B4EBB093AD
:101620006B00B091CD00B093AF00F89439D77894A7
:10163000B091CC00B093AF001DD718D7B09168001F
:10164000BB2319F485FF01C0B0CE01E085FD01C0C8
:1016500006E0B0919700B01708F4BBCF0BD7B0915C
:101660006800BB2309F4A1CEF89446DD2092610006
:101670002092620020926300522C209264002092FB
:10168000A3007894B091B900BB0FB093A000209252
:101690007F00209280002092810020928200209280
:1016A00083002092AC0060E070E020927100B8E00E
:1016B000B093AC007860D6D6B2E073FDB1E0B7B9B4
:1016C000B6B1B068B064B6B9B6B1B6FDFDCF04B17D
:1016D00015B1B6B1BF77B6B9112309F00FEF00937A
:1016E000AD002CD9B8E0B093AC0078608090BB001E
:1016F000B2E0B093BB0053DD8092BB00F894BFEF23
:10170000B0939C0096D9B0916100B0939C00B093C7
:101710009D00B0939E007894B1E0B0936100B093C7
:1017200063005B2EB0936400B093A600B0919B0061
:10173000B093A500B091BC00B33019F49F7D87FD34
:1017400090627160726020926D0085DC95DC8AD9B0
:101750008FD988D98DD986D906C0F89420DD7894A0
:101760002092AC00777FF2DA12D7A4DBD4DB80D9E9
:10177000E6DA66FD86D776FF3ED876FD6CD89ADB32
:10178000DBDB76D9E3DA66FD9ED794DB14DC70D917
:10179000D6DA66FDD2D78EDB1FDC6AD9D7DA66FDD2
:1017A000FCD788DB58DC64D9CADAB2E073FDB1E05B
:1017B000B7B9B6B1B068B064B6B97CDB5DDC58D9F6
:1017C000BDD871FF20C067FD1EC0B0919F00B093CF
:1017D0009C00B0939D00B0919B00B093A500B1E038
:1017E000B093A60018E12CE0B0916D00B11728F07D
:1017F0007D7F746020936F0006C0B0919700B13078
:1018000008F0B1CF46C072FF10C067FD0EC0B091A6
:101810006F00BA9511F47B7FA0CFB0936F00B091A9
:101820009700B13008F09FCF34C020927000B09183
:101830009A00B13058F0B0919F00B0939D00B091E4
:101840009B00B093A500B1E0B093A600B0919A00C0
:101850000AEFB01708F01DC085FF04C0B091680002
:10186000BB23B9F000EF67FF05C0B0919F00B093B4
:101870009C0000E2B0917B00B01708F474CFB091E7
:101880007000B395B0937000B0919700BB2309F03E
:1018900002C020927000F8942FDC8090BB00B2E070
:1018A000B093BB007CDC8092BB0020926100209250
:1018B000620020926300522C209264002092A000CB
:1018C0007E7F7894CFD518DCB6B1B460B6B985FF09
:1018D00005C0B0916800BB2309F467CDB091C10089
:1018E000B13008F0CCCD71CEEDE0F0E023D0053A78
:1018F00009F01BC0EEE0F0E01DD00A3509F015C07C
:101900003AE0A4EBB0E0E3E0F0E014D00D933196C0
:101910003A95D9F738E1A0ECB0E0EFE0F0E00AD07A
:101920000D9331963A95D9F702C0F3DB0AD0E7E27E
:10193000F0E00895E199FECFEEBBFFBBE09A0DB356
:1019400008951ED03AE0A4EBB0E0E3E0F0E00D91A2
:101950000FD031963A95D9F738E1A0ECB0E0EFE03E
:10196000F0E00D9105D031963A95D9F712D008954F
:10197000E199FECF0DBBEEBBFFBBE29AE19A089561
:10198000EDE0F0E00FEFF4DFEEE0F0E00FEFF0DF7E
:101990000895EDE0F0E005EAEBDFEEE0F0E00AE5C7
:1019A000E7DF08953091B0000091B100313011F4BB
:1019B0000093B400323011F40093B500333011F4C9
:1019C0000093B600343011F40093C800353011F4A0
:1019D0000093B700363011F40093BA00373011F499
:1019E0000093C600383011F40093BB00393011F475
:1019F0000093D0003A3011F40093BC003B3011F456
:101A00000093BD00089525E037D52A95E9F708959C
:101A10003ED540D542D544D529D539D53BD53DD540
:101A20003FD524D534D536D538D53AD5089538D5CF
:101A300034D530D52CD51AD533D52FD52BD527D5A0
:101A400015D52ED52AD526D522D508958090B0005B
:101A50009090B1001CD51BD51AD508D58A94D1F722
:101A60001FD504D59A94E1F70895F894D1DF7894BE
:101A7000CADFC9DFB1E0B093B000B1E0B093B1000C
:101A80002092B200F894E2DF7894B5E06B2E70906B
:101A90009700F2D4B09197007B16C9F7B13018F0D7
:101AA000B63C40F107C07EDFF8944BDFB1DFB8E011
:101AB000B1BDA9DF6A9459F7B091B200B395B09364
:101AC000B200B33008F4DECF9EDFB091B100B39521
:101AD000B093B100F894B091B000BA95EEE3F0E0A5
:101AE000EB0FF21D049178940395B091B100B017FB
:101AF00008F4C6CF88DF87DFB091B000B395B0930C
:101B0000B000B091B000BC3008F4B7CF02DBF8945D
:0A1B100018DFB8E0B1BD77DFF7CBB6
:00000001FF
