:020000020000FC
:100000009ECD00000000000020C0CCC194C00000C4
:1000100000009EC000000000000000000203040673
:10002000080C10182030406080000406080C1018DE
:100030002030406080A0C00000070F1F3F000D0D62
:100040000403060D0503030202004FB662FD0EC055
:10005000552009F00994C52DC095089483FDC795D6
:10006000C4BDC093A10064604FBE1895C0916400E8
:10007000089483FDC795C4BDC093A1006B7FC09158
:100080006400CF3F09F420C070FF02C082FD05C0AC
:100090004FBEC19897989598189575FD0EC065FD4F
:1000A0000CC0C091B300C0FD9298C1FD9398C2FDF1
:1000B0009498CAEFC095CA95F1F7C198979895980A
:1000C0002092A1004FBE189524BCCC27C064C8BFA5
:1000D0006460F6CFC0CF70FFBECF65FDBCCFC19AC4
:1000E000BACF70FFB8CF65FDB6CF979AB4CF70FF87
:1000F000B2CF65FDB0CF959AAECF929A70FFABCFDD
:1001000065FDA9CFC7E0CA95F1F7C19AA4CF939A2C
:1001100070FFA1CF65FD9FCFC7E0CA95F1F7979A11
:100120009ACF949A70FF97CF65FD95CFC7E0CA9597
:10013000F1F7959A90CF4FB6C9B7CF7EC9BF6E7F02
:10014000CCB5CE0DDDB5DF1DDBBDCABD4FBE1895EC
:100150003FB68F7EA9B7A072A2118061A9B7AF7D0B
:10016000A9BFA9B7AE7FA9BF7894A0916800AA23C0
:1001700041F085FD35C0A0916800AA95A093680064
:100180002FC040E050E085FD15C0A6B396FDA095B8
:10019000A0FD46ECAEB5A06496FDAF7BAEBDAA2730
:1001A000A062A8BF8D7FA6B396FDA095A0FD56ECDA
:1001B000451739F7A0E461FDA093680085FD03C0F1
:1001C000A0E4A093680040939700403009F450E009
:1001D000463C09F453E65093DC004091970081605F
:1001E00085FD0EC0A0916900AA2331F0A09169009D
:1001F000AA95A093690004C08061AA27A062A8BF45
:1002000080FF0AC0A09197004A2F61FF8E7F85FD75
:1002100001C000C0409361004091B600443009F035
:1002200004C0A0916100A0936300A52DA03408F044
:100230006860A0916000A395A093600059F0F894C5
:10024000A9B7A160A9BF84FF03C0A9B7A062A9BFD5
:100250003FBE1895A0917400A395A093740042E04E
:1002600050916800552329F085FF03C05A9550939B
:100270006800A0919700A13018F020929A000DC05C
:1002800020929B002092A500A0919A00AF5FA093BE
:100290009A0018F0AFEFA0939A00B09061005091CF
:1002A000B600523049F466FF91F0A2E3BA1678F036
:1002B000A0918700A0936100533049F466FF39F0A4
:1002C000A2E3BA1620F0A091C200A0936100509161
:1002D00062005B1521F010F05A9501C053955093C0
:1002E00062004A95D1F65091A500539509F45A95AC
:1002F0005093A500A091A600AA95A093A60009F08E
:1003000046C0A1E0A093A60045E0A091A7005A171F
:10031000F0F1A091A8005A1728F441E0A3E0A093BF
:10032000A60007C0A091A9005A1718F441E0409315
:10033000A600D0909D00C0906300DC14A8F0A091AE
:10034000B600A430D9F066FD0FC0C0929D00539551
:1003500011F0A091A700A093A500A1E0A093A60092
:10036000ACE3A093620013C0A0919D00A40F20F401
:100370005FEF50939D0002C0A0939D00A0919D004F
:10038000AF3F29F4AFEFA0939B00A093A500F89492
:10039000A9B7A160A9BF84FF03C0A9B7A062A9BF84
:1003A0003FBE18953FB646B557B58F7EA9B7A07228
:1003B000A2118061A9B7AF7DA9BFA9B7AE7FA9BFC0
:1003C000789481FD25C0AEB5AF7B96FDA064AEBD2F
:1003D0008260A6B396FDA095A0FF05C0409365007E
:1003E000509366003EC0AEB5A06496FDAF7BAEBD37
:1003F000AA27A062A8BF8D7F85FF01C02FC040E063
:10040000A6B396FDA095A0FD29C04093970023C0F8
:10041000AEB5A06496FDAF7BAEBD8D7FA1E0A0938D
:10042000960000C0A09165004A1BA09166005A0B7F
:10043000552309F046ECA42EA42FA6954A0F521D71
:1004400046954093DC004A2D4650440F4395463C68
:10045000520508F046EC409397008160A0E4A09319
:100460006800A0E2A0936900F894A9B7A160A9BFB1
:1004700084FF03C0A9B7A062A9BF3FBE189511E0D1
:100480000AC013E008C01AE006C01EE104C014E66A
:1004900002C018EC00C005E1BB27BA95F1F70A9538
:1004A000D9F71A95C1F708952AE338E709C020E380
:1004B0003CE806C02AE234EB03C025E238EC00C079
:1004C00012E095FD9F7D95FF9062BB27939ABA95A8
:1004D000F1F7979ABA95F1F79798BA95F1F793983B
:1004E000BA95F1F7C19AB091AF00BA95F1F7C198FA
:1004F000B7E8BA95F1F71A9521F7022FB22FBA95FE
:10050000F1F70A95D9F73A95D9F6939A0895221BEF
:1005100039E0001F3A9509F40895221F211B18F4B1
:10052000210F8894F6CF0894F4CF622C722CB0E09F
:100530008894B395221F331FE0F737952795889449
:10054000912E802E020B130B10F4192D082D10F490
:10055000889401C00894661C771CBA9571F7172D12
:10056000062D0895322D11232AF43A950095109501
:10057000031B130BF894029F712C002D129F912CDA
:10058000802C7894780C172D921C292DB4E06B2EBA
:100590002695179507956A94D9F7332321F000958E
:1005A0001095031B130B08950091B600043009F455
:1005B00074C0B0919700B35198F0B72FB67081F422
:1005C00066FD2BC005E09090C800B92DBA9521F0CA
:1005D0000AE0BA9509F002E1B0917B00B01BE0F0AF
:1005E00066FF0AC0B0919F00B0939D00BFEFB0932B
:1005F000A500B1E0B093A600B0916100B093630094
:1006000020927F0020928000209281002092820020
:10061000209283006F7B41C060649090C800B92D28
:10062000BA9579F4B0916200B095BB1FBB1F1B2F28
:10063000B7950B2FB12FB170B3951B2FB02FBE7F85
:1006400025C0B92DBA95BA9581F4B0916200B095E4
:10065000BB1FBB1FBB1F1B2FB7950B2FB12FB37039
:10066000B3951B2FB02FBC7F14C0B0916200B09522
:10067000BB1FBB1FBB1FBB1F1B2FB7950B2FB12F62
:10068000B770B395B3951B2FB02FB87FB0540B2F15
:10069000120900937F0010938000089510917B0051
:1006A000169500917A000795B0917F00B01B0B2F33
:1006B000B0918000B10B1B2F28F40038BFEF1B074F
:1006C00040F009C00F37120508F405C00FE710E02D
:1006D00002C000E81FEF0093840010938500089586
:1006E00000918400B09181000B0F10918500B091B2
:1006F00082001B1F20E03091850033230AF42A95E5
:10070000B09183002B1F1AF4203F40F00AC02F3015
:1007100008F407C00FEF1FEF2FE003C000E010E068
:1007200020EF30916300B0919C003B1718F43230F9
:1007300030F009C0B0918500BB235AF004C0B091DD
:100740008500BB2332F40093810010938200209334
:10075000830008952091D80000918400000F10912B
:100760008500111FFFDE11232AF40038BFEF1B079D
:1007700040F009C00F37120508F405C00FE710E07C
:1007800002C000E81FEF002352F0B0916200B01BDE
:100790000B2F18F0013008F00AC001E008C00095E6
:1007A0000F5FB09162000B0F08F001C00FEF0093D4
:1007B000860008952091D900009182001091830055
:1007C000D1DE11232AF40130BFEF1B0740F009C02E
:1007D0000F3F120508F405C00FEF10E002C001E062
:1007E0001FEF112352F0B0918600B01B0B2F18F0B1
:1007F000013008F00AC001E008C000950F5FB09119
:1008000086000B0F08F001C00FEF009363000895FE
:100810000FEF677F71FD29C072FD09C06860B0915C
:100820007B00BA3020F0B52DB03408F4677FB0916A
:10083000D500BB23D1F0B0917B00BB23B1F00FEF0B
:1008400010917B0064DEF894B091730072FDB5E006
:100850000B9F112D002D7894112309F00FEFB0910B
:100860009F000B1710F400919F0000939E000895C5
:1008700000917A0010917B0000541140B0919E00CD
:1008800010F4BA9501C0B39511F0B0939E0008958D
:10089000EFD3B2E073FDB1E0B7B9B6B1B068B06400
:1008A000B6B9EDDDB2E073FDB1E0B7B9B6B1B0688D
:1008B000B064B6B9B6B1B6FDFDCF04B115B1B6B1ED
:1008C000BF77B6B926D42CE62093AA00222309F4D8
:1008D00041C030E03093AB00732E7694622E669464
:1008E000620E731E262D372D0217130778F08090A5
:1008F000AA00BCE6B80DB093AA008090AB00B0E0AF
:10090000B81DB093AB00260D371DEECF8090AA0026
:100910009090AB001091AB0016950091AA0007953E
:100920001695079523E0169507952A95E1F72091EE
:10093000B7002A9529F42092AA002092AB000AC0A1
:100940002A9521F0800E911E2A95E1F78092AA0047
:100950009092AB0008952091B700B6B1B6FDFBCFE1
:1009600004B115B1B6B1BF77B6B9B091AC00B395CB
:10097000B093AC00B83060F12092AC00B091D400DC
:10098000BB2321F1112329F0B091AD00BF3F61F0ED
:1009900009C0B091AD000B1739F020F4BB2321F052
:1009A000BA9502C0B395E1F300919C00B093AD00FD
:1009B000BA3F50F400ECB93F38F400E8B83F20F4F7
:1009C00000E4B73F08F400E000939C00777F0895AF
:1009D0002130B1F00F3FB3E01B0790F4BCE6BB231E
:1009E00079F0B091AA000B17B091AB001B0740F44F
:1009F000B0919C00BB2359F0BA95B0939C0007C0FE
:100A0000B0919C00BF3F19F0B395B0939C0000914A
:100A10009C00B0916300B01B10F400916300B09192
:100A20009D000B1750F000919D00B0919D00BF3FBD
:100A300021F0B0919D00B0939C00502E0093640073
:100A4000B091AC00B73009F47860089502E3F894EF
:100A5000B091DA000B9F012D000C001F7894B0912B
:100A60009C000B1710F000919C0000936100009314
:100A70006300502E0093640000939F00089520921D
:100A80007A00B0EFB0937B000895F8940CB51DB5D3
:100A900020917400789430917500609076000093F6
:100AA000750010937600031B160971FD03C076FDD7
:100AB00081C02BC0709077002093770027092223F4
:100AC00011F00FEF1FEF8090780090907900309335
:100AD0007800609279006918161910937C000091D3
:100AE0007500109176000819190920917A0030914B
:100AF0007B0036952795020F131F10F40FEF1FEFA1
:100B000000937A0010937B0029C020917A003091E5
:100B10007B003901B4E08B2EB2E09B2E343010F014
:100B20008A949A94383010F08A949A9476946794C0
:100B30008A94E1F726193709992021F0169507952F
:100B40009A94E1F7200F311F20937A0030937B00B5
:100B500028F43FEF30937A0030937B00323008F472
:100B6000706471FF02C0B3E00DC0B091C600009187
:100B70007100023838F0B395003A08F0B395B630FA
:100B800008F0B5E09B2EB4E08B2E10917B00009115
:100B90007A0024E0169507952A95E1F708191209BD
:100BA00028F0B02FB250B12FB20910F402E010E0DB
:100BB000980126C020917A0030917B00390176940B
:100BC000679466946694669426193209069506958C
:100BD000200F321D20937A0030937B00323008F0D2
:100BE0007F7B04E0369527953695279526952695A3
:100BF000201B10F0223008F422E089019090C600FA
:100C000060FDFECFE0908C00F0908D006160B9B780
:100C1000B061B9BF380176FD44C076946794009303
:100C20008C0010938D00B92DB330E1F0B0FD04C0FD
:100C3000060D171D930106C0000F111F0250120967
:100C400022E030E0B92DB33068F020938E0030936D
:100C50008F00009388001093890060928A00709240
:100C60008B003DC000938E0010938F00209388006E
:100C70003093890060928A0070928B0071FF10C0DF
:100C8000B0916D00B33060F000918F0010917C0046
:100C90001595010F28F022F020928E0000938F000E
:100CA0001EC0669400938C00B92DB33091F0B0FD56
:100CB00003C0060D262D03C0000F025022E0B92DFF
:100CC000B33038F020938E000093880060928A0041
:100CD00006C000938E002093880060928A000091E5
:100CE0007D0002FD0350013029F495FD0AC0B0E0FB
:100CF000B7B909C0023019F4B7E0B7B904C095FD1F
:100D0000F6CFB6E0B7B90091A400000F10F4BBE62F
:100D10000B270093A40060FDFECFB2E0B0936E00FD
:100D20006160B9B7B061B9BFB72FB670A1F02091BB
:100D30007A0030917B0036952795F8940CB51DB557
:100D4000020F131F1BBD0ABD6160B0E1B8BFB9B788
:100D5000B061B9BF78940895606120927E0020E070
:100D600067FD20E206C0606120927E0020E267FD00
:100D700020E0789401E076FD11C0B72FB67009F03D
:100D80006F7EB0917B00B55048F002E0B55020F086
:100D900003E0B55008F006E071FD0AE060FD12C006
:100DA000B0917E00BB2371F071FF08C0B0916D005F
:100DB000B33020F0B0916E00BA9519F47894706158
:100DC0005CC0AEDF789400000000F89476FD16C099
:100DD00010917B00173008F017E0B5E01B0F72FD93
:100DE00010E183FF110F62FF110F71FD12E8B4B51E
:100DF0006090A100B61990F2B10B80F2B0B7B77F46
:100E0000B0BFB8B1B0B7B860B0BFB0917E00B39515
:100E1000B0937E00B8B176FD06C0B1E071FDB2E0DE
:100E2000BA95F1F7B8B1B072B21709F01BC071FFF3
:100E300005C003950A3008F00395B0CF64FF99CF41
:100E40006F7E3CB56DB470907A0080907B00370D5A
:100E5000681C6BBC3ABD6160B0E1B8BFB9B7B061A6
:100E6000B9BF87CFB0916D00B23008F482CF64FD76
:100E700080CF0A9509F092CF7F7E20918E0030912D
:100E80008F00F894B0E1B8BF0CB51DB5020F131F69
:100E90001BBD0ABDE0908800F09089006160B9B781
:100EA000B061B9BF7894B72FB67039F0B0916D00CA
:100EB00072FFB395B0936D0009C074FF07C067FD62
:100EC00005C064FD03C0BF91BF91ECC4089500E06C
:100ED00063FF03C064FF01C001E0F894109171004A
:100EE000B7E01B9F212D102D7894200F2695179584
:100EF000269517952695179510937100183718F4B5
:100F0000B8E7B093710000917100B09172000B17B7
:100F100020F06062C1989798959860FDFECFE090B0
:100F20008A00F0908B006160B9B7B061B9BF0895D5
:100F3000B2E095FD07C0F894B0937D00939A929823
:100F40007894E5C0F894B0937D00939A949878943F
:100F5000DEC0B3E082FF24C095FD11C002E0F8942A
:100F6000B0937D00E7E8F0E00093B3009598949A81
:100F700062FF02C0979A01C093987894C8C002E0BB
:100F8000F894B0937D00E7E8F0E00093B300C198D7
:100F9000929A62FF02C0979A01C093987894B7C062
:100FA00095FD0BC0F894B0937D00E1E7F0E09598D3
:100FB00062FF01C0979A7894AAC0F894B0937D001C
:100FC000E1E7F0E0C19862FF01C0979A78949FC072
:100FD000B4E095FD07C0F894B0937D00929A949880
:100FE000789495C0F894B0937D00949A92987894F0
:100FF0008EC0B5E082FF24C095FD11C001E0F894D9
:10100000B0937D00EDE7F0E00093B3009798939ADA
:1010100062FF02C0C19A01C09298789478C004E03F
:10102000F894B0937D00E1E9F0E00093B300979865
:10103000939A62FF02C0959A01C09498789467C011
:1010400095FD0BC0F894B0937D00EBE6F0E0979827
:1010500062FF01C0C19A78945AC0F894B0937D00A1
:10106000E7E7F0E0979862FF01C0959A78944FC047
:10107000B6E095FD07C0F894B0937D00949A9398DC
:10108000789445C0F894B0937D00929A93987894A0
:101090003EC0B1E082FF24C095FD11C004E0F89489
:1010A000B0937D00E1E9F0E00093B300C198929A1B
:1010B00062FF02C0959A01C09498789428C001E01C
:1010C000F894B0937D00EDE7F0E00093B3009598BD
:1010D000949A62FF02C0C19A01C09298789417C096
:1010E00095FD0BC0F894B0937D00E7E7F0E0C19860
:1010F00062FF01C0959A78940AC0F894B0937D007D
:10110000EBE6F0E0959862FF01C0C19A78946F7D9C
:1011100008952AE630E0F9012092B300C19897982B
:101120009598929A939A949A6B7F0895A4EBB0E065
:1011300007E00D9307E00D9301E00D9304E00D939C
:101140000FEF0D930D9309E00D9302E00D9301E075
:101150000D9301E00D93A0ECB0E000E00D9300E0F2
:101160000D9304EB0D930FEF0D930D930D9303E08F
:101170000D930FEF0D9301E00D930FEF0D9305E22B
:101180000D9300ED0D9308E70D9308EC0D9304E02B
:101190000D930FEF0D9301E00D9300E00D930AE71F
:1011A0000D930AE00D9301E00D9301E00D9301E032
:1011B0000D930FEF0D9308952091BB008B7F23308B
:1011C00009F48460B091BC009F7DB1FD90629F7B6B
:1011D000B091BD00B1FD9064223011F0886001C073
:1011E000877F08950A95E00FF21DB4910895ECE110
:1011F000F0E00091B400F6DFB093D800ECE1F0E04D
:101200000091B500EFDFB093D900EAE2F0E0009181
:10121000BA00E8DFB093DA000091D300002309F4AC
:101220000395013108F001E1B02FB00FB00FB0937A
:10123000A7001B2FB10FB10FB00FB093A800B10FD3
:10124000B00FB00FB093A900B091D0000FEF1CE029
:10125000B23011F400EA1AE0B33011F402E815E0FC
:101260000093720010937300E8E3F0E00091D70060
:10127000B9DFB093A200089508952091CA0030917B
:10128000CB00B091BC00B33009F43E5097FF02C0D0
:1012900020E03FEFB32FB21B6B2EB25810F4B2E830
:1012A0006B2E00E00395609EB12DBD57D8F30093DF
:1012B000AE0008959068E1DFE8D820E030E0B0E1CA
:1012C0006B2EDFD8B09197002B0F321D6A94C9F7AF
:1012D000B4E036952795BA95E1F7822E9F77CDDF5A
:1012E00008954A3028F04A50DFD8D3D8D2D8F9CF61
:1012F0009DD3413028F04A95E0D8CBD8CAD8F9CF51
:10130000089520E030E00FEFA6B396FDA095A0FF72
:101310002395A0FD33951CE0B2E0BA95F1F71A953C
:10132000D9F70A9589F70895F894E3E0F0E0B9E079
:10133000B7BFB491B078C1F3F894A895B1B5B861CE
:10134000B1BDB0E0B1BDB4E0BEBFBFE5BDBFE1DE41
:10135000B0E0B8BBB2E1B7BBB0E0B5BBB0E0B4BB86
:10136000BCE1B2BBBCEBB1BB2224A0E0B0E02D924B
:10137000AA31E9F7A0E6B0E00FEF2D920A95E9F760
:10138000B1E0B093A4000091CC000093AF00CEDE9A
:10139000BED2B6B1B460B6B9B1E0B0936A00F89409
:1013A00078D882D872D883D870D884D872D83ED3EF
:1013B0003DD33CD33BD33AD339D338D37BD865D84C
:1013C00076D863D871D832D331D3F89446E04093BD
:1013D000B70000E00093DB0094DF132F120F1F3FD4
:1013E00041F4353028F13A3F40F42FEF2093DB00F1
:1013F0001FC063D84AD85ED8FCCFE0E0FCE1B591CD
:10140000B43E39F4B591B03E21F4B591BF3F09F433
:101410000CC0E0E0F395F395B591B83F49F4B59170
:10142000B43931F4B591BA3A19F4EE27F695099426
:101430002091DB002F3F01F0BFDED9DE1DDF0091E0
:10144000CC000093AF0065DEB2E0B3BFB2E0BEBD3A
:10145000B2E0B5BDB1E5B8BFB9BFB0B7B77FB0BFF7
:10146000B8B1B0B7B860B0BF0AD8789411DA8D7F40
:101470006D7FA0E1BA2EAAE0AA2EBEB5B06496FD9B
:10148000BF7BBEBDB9B7B062B9BFBB27B062B8BF42
:1014900000D8BEB5B06496FDBF7BBEBDBB27B062B1
:1014A000B8BF8D7F06C0EDD702E0B0919700B017AE
:1014B000C8F30091DB000F3F49F47894EAD7F89421
:1014C0004091DC000EDFB2D2B1D2E3CF86C02092D1
:1014D000870001C0D6D7B0916A00B13008F469C066
:1014E00085FD18C0B0919700B63C08F462C0F8942E
:1014F000E4D77894CCD7B0919700B130C0F7F89486
:10150000D3D7C1D7D1D77894C2D7B0919700B63C82
:10151000B0F3BEC2B8E09B2E9068F894AEDE78942B
:10152000B6D7F8949F77A9DE80909700B091970086
:10153000B336789408F445C0A2D7F894BED778940F
:101540009A9451F7B7DEB82DB550B093CB00A1D720
:10155000F8940AD270D27894BAE09B2E9068F894EE
:101560008CDE789494D7F8949F7787DE80909700EC
:10157000B0919700B336789478F781D7F89494D7E0
:1015800082D792D778949A9449F794DEB82DBB5FAE
:10159000B093CA007ED7F894E7D15CD2789477D71D
:1015A000F8946BDE7894B0919700B63C08F498CF2D
:1015B0006FC200919700B09187000B1710F0009355
:1015C000870065D701E0B091BC00B35009F405E095
:1015D000B0919700B01708F07CCFF89456D76DD72C
:1015E00054D76BD752D769D7789453D720926A00D3
:1015F00020926B0020926C00B0916B00B395B09379
:101600006B00BF3F69F5B0916C00B395B0936C006F
:10161000B091CE0009E1BA9559F002E3BA9541F0D4
:101620000DE7BA9529F00AEFBA9511F020926C00F7
:10163000B0916C00B017A0F0B0916C00BA95B09367
:101640006C00B4EBB0936B00B091CD00B093AF00E1
:10165000F89433D77894B091CC00B093AF0017D7FB
:1016600012D7B0916800BB2319F485FF01C0ADCE3D
:1016700001E085FD01C006E0B0919700B01708F4C5
:10168000BBCF05D7B0916800BB2309F49ECEF89478
:1016900040DD209261002092620020926300522C73
:1016A000209264002092A3007894B091B900BB0FFF
:1016B000B093A00020927F002092800020928100B1
:1016C00020928200209283002092AC0060E070E0C3
:1016D00020927100B8E0B093AC007860D0D6B2E050
:1016E00073FDB1E0B7B9B6B1B068B064B6B9B6B120
:1016F000B6FDFDCF04B115B1B6B1BF77B6B91123B0
:1017000009F00FEF0093AD0026D9B8E0B093AC001C
:1017100078608090BB00B2E0B093BB004DDD80925A
:10172000BB00F894BFEFB0939C0090D9B0916100DA
:10173000B0939C00B0939D00B0939E007894B1E06C
:10174000B0936100B09363005B2EB0936400B093DC
:10175000A600B0919B00B093A500B091BC00B3303F
:1017600019F49F7D87FD90627160726020926D0018
:101770007FDC8FDC84D989D982D987D980D906C00A
:10178000F8941ADD78942092AC00777FECDA0CD7CD
:101790009EDBCEDB7AD9E0DA66FD80D776FF38D8DB
:1017A00076FD66D894DBD5DB70D9DDDA66FD98D797
:1017B0008EDB0EDC6AD9D0DA66FDCCD788DB19DC8B
:1017C00064D9D1DA66FDF6D782DB52DC5ED9C4DAA1
:1017D000B2E073FDB1E0B7B9B6B1B068B064B6B904
:1017E00076DB57DC52D9B7D871FF20C067FD1EC029
:1017F000B0919F00B0939C00B0939D00B0919B006E
:10180000B093A500B1E0B093A60018E12CE0B09130
:101810006D00B11728F07D7F746020936F0006C0C3
:10182000B0919700B13008F0B1CF46C072FF10C040
:1018300067FD0EC0B0916F00BA9511F47B7FA0CF09
:10184000B0936F00B0919700B13008F09FCF34C0D3
:1018500020927000B0919A00B13058F0B0919F0082
:10186000B0939D00B0919B00B093A500B1E0B09300
:10187000A600B0919A000AEFB01708F01DC085FFCE
:1018800004C0B0916800BB23B9F000EF67FF05C04A
:10189000B0919F00B0939C0000E2B0917B00B01724
:1018A00008F474CFB0917000B395B0937000B0910C
:1018B0009700BB2309F002C020927000F89429DC45
:1018C0008090BB00B2E0B093BB0076DC8092BB009E
:1018D000209261002092620020926300522C20929C
:1018E00064002092A0007E7F7894C9D512DCB6B146
:1018F000B460B6B985FF05C0B0916800BB2309F498
:1019000064CDB091C100B13008F0CCCD71CEEDE026
:10191000F0E023D0053A09F01BC0EEE0F0E01DD066
:101920000A3509F015C03AE0A4EBB0E0E3E0F0E0DE
:1019300014D00D9331963A95D9F738E1A0ECB0E088
:10194000EFE0F0E00AD00D9331963A95D9F702C056
:10195000EDDB0AD0E7E2F0E00895E199FECFEEBBBF
:10196000FFBBE09A0DB308951ED03AE0A4EBB0E0BF
:10197000E3E0F0E00D910FD031963A95D9F738E1D8
:10198000A0ECB0E0EFE0F0E00D9105D031963A9593
:10199000D9F712D00895E199FECF0DBBEEBBFFBB86
:1019A000E29AE19A0895EDE0F0E00FEFF4DFEEE067
:1019B000F0E00FEFF0DF0895EDE0F0E005EAEBDF97
:1019C000EEE0F0E00AE5E7DF08953091B000009125
:1019D000B100313011F40093B400323011F40093AF
:1019E000B500333011F40093B600343011F4009395
:1019F000C800353011F40093B700363011F400936D
:101A0000BA00373011F40093C600383011F4009357
:101A1000BB00393011F40093D0003A3011F4009338
:101A2000BC003B3011F40093BD00089525E031D592
:101A30002A95E9F7089538D53AD53CD53ED523D532
:101A400033D535D537D539D51ED52ED530D532D568
:101A500034D5089532D52ED52AD526D514D52DD5F1
:101A600029D525D521D50FD528D524D520D51CD5C8
:101A700008958090B0009090B10016D515D514D57A
:101A800002D58A94D1F719D5FED49A94E1F7089536
:101A9000F894D1DF7894CADFC9DFB1E0B093B00029
:101AA000B1E0B093B1002092B200F894E2DF7894F4
:101AB000B5E06B2E70909700ECD4B09197007B1638
:101AC000C9F7B13018F0B63C40F107C07EDFF8949A
:101AD0004BDFB1DFB8E0B1BDA9DF6A9459F7B0912F
:101AE000B200B395B093B200B33008F4DECF9EDFFE
:101AF000B091B100B395B093B100F894B091B0003B
:101B0000BA95EEE3F0E0EB0FF21D049178940395A3
:101B1000B091B100B01708F4C6CF88DF87DFB0916D
:101B2000B000B395B093B000B091B000BC3008F4F1
:101B3000B7CFFCDAF89418DFB8E0B1BD77DFF4CBAB
:00000001FF
